{
  "contractName": "CoinFlip",
  "abi": [
    {
      "anonymous": false,
      "inputs": [
        {
          "indexed": false,
          "internalType": "address",
          "name": "player",
          "type": "address"
        },
        {
          "indexed": false,
          "internalType": "bool",
          "name": "won",
          "type": "bool"
        }
      ],
      "name": "userWon",
      "type": "event"
    },
    {
      "constant": true,
      "inputs": [],
      "name": "balance",
      "outputs": [
        {
          "internalType": "uint256",
          "name": "",
          "type": "uint256"
        }
      ],
      "payable": false,
      "stateMutability": "view",
      "type": "function"
    },
    {
      "constant": true,
      "inputs": [
        {
          "internalType": "address",
          "name": "",
          "type": "address"
        }
      ],
      "name": "playersCollectablePrizes",
      "outputs": [
        {
          "internalType": "uint256",
          "name": "",
          "type": "uint256"
        }
      ],
      "payable": false,
      "stateMutability": "view",
      "type": "function"
    },
    {
      "constant": false,
      "inputs": [],
      "name": "collectPrizes",
      "outputs": [
        {
          "internalType": "uint256",
          "name": "collected",
          "type": "uint256"
        }
      ],
      "payable": false,
      "stateMutability": "nonpayable",
      "type": "function"
    },
    {
      "constant": false,
      "inputs": [],
      "name": "getMyBalance",
      "outputs": [
        {
          "internalType": "uint256",
          "name": "userBalance",
          "type": "uint256"
        }
      ],
      "payable": false,
      "stateMutability": "nonpayable",
      "type": "function"
    },
    {
      "constant": false,
      "inputs": [
        {
          "internalType": "uint256",
          "name": "bet",
          "type": "uint256"
        }
      ],
      "name": "play",
      "outputs": [
        {
          "internalType": "bool",
          "name": "won",
          "type": "bool"
        }
      ],
      "payable": true,
      "stateMutability": "payable",
      "type": "function"
    }
  ],
  "bytecode": "0x608060405234801561001057600080fd5b50610522806100206000396000f3fe60806040526004361061004a5760003560e01c80634c7389091461004f5780636898f82b1461007a578063998d4243146100c0578063b69ef8a8146100eb578063bc5bb08b14610116575b600080fd5b34801561005b57600080fd5b5061006461017b565b6040518082815260200191505060405180910390f35b6100a66004803603602081101561009057600080fd5b81019080803590602001909291905050506101c2565b604051808215151515815260200191505060405180910390f35b3480156100cc57600080fd5b506100d56103f7565b6040518082815260200191505060405180910390f35b3480156100f757600080fd5b506101006104cf565b6040518082815260200191505060405180910390f35b34801561012257600080fd5b506101656004803603602081101561013957600080fd5b81019080803573ffffffffffffffffffffffffffffffffffffffff1690602001909291905050506104d5565b6040518082815260200191505060405180910390f35b6000600160003373ffffffffffffffffffffffffffffffffffffffff1673ffffffffffffffffffffffffffffffffffffffff16815260200190815260200160002054905090565b600034670de0b6b3a7640000811015610243576040517f08c379a00000000000000000000000000000000000000000000000000000000081526004018080602001828103825260158152602001807f6d696e696d756d20706c6179206973203120657468000000000000000000000081525060200191505060405180910390fd5b60008090506000841415801561025a575060018414155b156102cd576040517f08c379a000000000000000000000000000000000000000000000000000000000815260040180806020018281038252601c8152602001807f506c656173652063686f73652031206f72203020617320696e7075740000000081525060200191505060405180910390fd5b6000600242816102d957fe5b061480156102e75750600084145b8061030857506001600242816102f957fe5b061480156103075750600184145b5b1561036e573460005401600160003373ffffffffffffffffffffffffffffffffffffffff1673ffffffffffffffffffffffffffffffffffffffff16815260200190815260200160002060008282540192505081905550600080819055506001905061037e565b3460008082825401925050819055505b7fc3d8845d9a61fa8a495d16b7cd48a57e674eb58d75caa6abb4f5e98cdb0b3e7c3382604051808373ffffffffffffffffffffffffffffffffffffffff1673ffffffffffffffffffffffffffffffffffffffff168152602001821515151581526020019250505060405180910390a18092505050919050565b600080600160003373ffffffffffffffffffffffffffffffffffffffff1673ffffffffffffffffffffffffffffffffffffffff1681526020019081526020016000205490506000600160003373ffffffffffffffffffffffffffffffffffffffff1673ffffffffffffffffffffffffffffffffffffffff168152602001908152602001600020819055503373ffffffffffffffffffffffffffffffffffffffff166108fc829081150290604051600060405180830381858888f193505050501580156104c7573d6000803e3d6000fd5b508091505090565b60005481565b6001602052806000526040600020600091509050548156fea265627a7a7231582008020c7f85502f6ae85bfc8245e6d7fe02230ba435be4925b12a5583468b376d64736f6c634300050c0032",
  "source": "pragma solidity 0.5.12;\nimport \"./Ownable.sol\";\n\ncontract CoinFlip {\n    uint256 public balance;\n\n    mapping(address => uint) public playersCollectablePrizes;\n\n    event userWon(address player, bool won);\n\n    modifier minimumBet(uint256 betValue) {\n        require(betValue >= 1 ether, \"minimum play is 1 eth\");\n        _;\n    }\n\n    function collectPrizes() public returns (uint collected){\n            uint256 toTransfer = playersCollectablePrizes[msg.sender];\n            playersCollectablePrizes[msg.sender]= 0;\n            msg.sender.transfer(toTransfer);\n            return toTransfer;\n    }\n\n    function getMyBalance() public returns (uint userBalance){\n            return playersCollectablePrizes[msg.sender];\n    }\n    \n    function play(uint256 bet) public payable minimumBet(msg.value) returns (bool won){\n        bool winner = false;\n\n        if(bet != 0 && bet != 1){\n            revert(\"Please chose 1 or 0 as input\");\n        }\n        else {\n            if((now % 2 == 0 && bet == 0) || (now % 2 == 1 && bet == 1)) {\n                // user wins\n                playersCollectablePrizes[msg.sender] += balance + msg.value;\n                balance = 0;\n                winner = true;\n            }\n            else{\n                balance += msg.value;\n            }\n            emit userWon(msg.sender, winner);\n            return winner;\n        }\n    }\n}\n\n",
  "sourcePath": "/Users/pedrodiogo/Documents/coding/blockchain_smart_contracts/ethereum_solidity/ivan_academy_sc_201/coin-flip-phase1/contracts/CoinFlip.sol",
  "compiler": {
    "name": "solc",
    "version": "0.5.12+commit.7709ece9.Emscripten.clang"
  },
  "schemaVersion": "3.0.23",
  "updatedAt": "2020-03-19T23:25:42.314Z",
  "networkType": "ethereum",
  "devdoc": {
    "methods": {}
  },
  "userdoc": {
    "methods": {}
  }
}